:020000040800F2
:10000000B0130020B11E00082105000823050008D8
:10001000270500082B0500082F0500080000000038
:100020000000000000000000000000003305000890
:1000300035050008000000003705000839050008F4
:10004000CB1E0008CB1E0008CB1E0008CB1E0008EC
:10005000CB1E0008CB1E0008CB1E0008CB1E0008DC
:10006000CB1E0008CB1E000859080008CB1E000854
:10007000CB1E0008CB1E0008CB1E0008CB1E0008BC
:10008000CB1E0008CB1E0008CB1E0008CB1E0008AC
:10009000CB1E0008CB1E0008CB1E000881080008FC
:1000A000CB1E0008CB1E0008CB1E0008CB1E00088C
:1000B0000B0D00085D0E0008CB1E0008CB1E0008CB
:1000C000CB1E0008CB1E0008CB1E0008CB1E00086C
:1000D000CB1E0008CB1E00087B42000869110008F7
:1000E000B7080008CB1E0008CB1E0008CB1E000876
:1000F000CB1E0008CB1E0008CB1E0008CB1E00083C
:10010000CB1E0008CB1E0008CB1E0008CB1E00082B
:10011000CB1E0008CB1E0008CB1E0008CB1E00081B
:10012000CB1E0008CB1E0008CB1E0008CB1E00080B
:10013000CB1E0008CB1E0008CB1E0008CB1E0008FB
:10014000CB1E0008CB1E0008CB1E0008CB1E0008EB
:10015000CB1E0008CB1E0008CB1E0008CB1E0008DB
:10016000CB1E0008CB1E0008CB1E0008CB1E0008CB
:10017000CB1E0008CB1E0008CB1E0008CB1E0008BB
:10018000CB1E0008CB1E000800F002F800F0BAF801
:100190000AA090E8000C82448344AAF10107DA45E2
:1001A00001D100F0AFF8AFF2090EBAE80F0013F07A
:1001B000010F18BFFB1A43F001031847C0CF00001E
:1001C000E0CF000010F8013B0A4413F0030408BF1D
:1001D00010F8014B1D1108BF10F8015B641E05D01B
:1001E00010F8016B641E01F8016BF9D1002D15D0D8
:1001F00010F8014B03F00C030C2BA1EB04040ABF15
:1002000010F8013BA4EB8314A4EB032405F10103D4
:1002100014F8016B5B1E01F8016BF9D5914238BFF0
:1002200010F8013BD1D3704700230024002500269D
:10023000103A28BF78C1FBD8520728BF30C148BF49
:100240000B6070476E2907F0FF85702907F0CD829B
:1002500066290AF0698765290AF0668767290AF026
:10026000638761290AF0628703681B0A28BF41F08F
:100270008001692907F03E82642907F03B827529D5
:1002800007F038826F2908F0FB80782907F09982FF
:10029000E92908F09580E42908F09280F52908F012
:1002A0008F80EF2908F0F880F82907F0988203681A
:1002B000DB0928BF41F08001632908F0168073290B
:1002C00008F01B80E32908F05983F32908F05E83C6
:1002D000002070471FB50AF022FF9DE8030007F0D9
:1002E00007FD08F01FF90400002000210AF0A6F81D
:1002F000401C6060002000210AF0B6F8E0601FBDDD
:1003000010B510BD08F02CFC1146FFF7E3FF00F01C
:1003100041F808F058FC03B4FFF7F2FF03BC08F003
:10032000C5FC000010B5A82003F04AFE41F61F41AD
:1003300041F2873000F058FC41F61F4140F6C310EF
:1003400000F083FC4FF4E13000F0AEFD4FF4E130FB
:1003500000F00CFE4FF4165000F067FE48A14D4827
:1003600000F0DEFE00F0F0FA00F016FB00F0BAFA42
:1003700000F019FA01F00AFD41F61F41C72000F014
:10038000D3FB01F077FB002000F0ADFF002000F070
:10039000B8FF10BD96B04FF4A06001F0A9FD002594
:1003A0000024FFF7BFFF03F009FF03E04FF4FA70EA
:1003B00003F068FE04F012FF0028F7D1012136484F
:1003C00004F076FF00BF01F0BEFC0028FBD155E031
:1003D000282095FBF0F100FB1150002823D12F4974
:1003E0002F4801F084FC2E4800781E2803DC2B489F
:1003F00000785F2803DD01202A49087002E0002010
:10040000284908701421002001F028FD26490880A1
:10041000084600880090214803782148027823A1EB
:100420002F4800F07DFE681C80B20546C8281ADB04
:10043000502102A807F00AFC1B48008800901748CA
:1004400003781748027827A102A807F0EDF82EA13B
:10045000104800F065FE02A93048006804F050FF23
:10046000002503F02FFE032003F087FE044614B19D
:10047000204604F070FF0A2003F004FEA8E7000005
:1004800020486172647761726520696E6974204FDB
:100490004B0D0A0000100140080800200108002050
:1004A00000080020020800200408002074656D7018
:1004B000657261747572653A2025642C2068756DCB
:1004C00069646974793A2025642C20696C6C756DB7
:1004D000696E6174696F6E3A25640D0A0000000050
:1004E000004800407B2248756D223A25642C20226A
:1004F00054656D70223A25642C20224C696768741B
:10050000223A2025647D00004F6E654E65745F5071
:1005100075626C6973680D0A000000000C08002009
:10052000704700BFFEE700BFFEE700BFFEE700BF69
:10053000FEE7704770477047704700000CB5002019
:10054000019000907648006840F48030744908605B
:1005500000BF7348006800F4003000900198401C10
:100560000190009818B90198B0F5A04FF1D16C48EE
:10057000006800F4003010B10120009001E000207C
:1005800000900098012846D165484030006840F04E
:1005900080506349403108606248006840F4404040
:1005A000604908605E48083000685D4908310860AD
:1005B0000846006840F4004008600846006840F4BF
:1005C000A05008605848091F0860081F006840F0E4
:1005D0008070091F086000BF5148006800F000707B
:1005E0000028F9D040F20570504908604C480830A6
:1005F000006820F003004A49083108600846006896
:1006000040F00200086000BF45480830006800F074
:100610000C000828F8D10CBD10B54548006840F41E
:100620007000434908603E48006840F001003C49C2
:10063000086000203A4908310860394800683D499F
:100640000840374908603C48091D0860081F0068D9
:1006500020F48020091F0860002031490C31086017
:10066000FFF76CFF4FF0006031498039086010BD22
:1006700070B500200022022300240221284D0835F5
:100680002D6805F00C0020B1042806D0082834D1CC
:1006900007E02A4D2A4E356033E02A4D284E35605A
:1006A0002FE01F4D2D1D2D68C5F380541C4D2D1DB1
:1006B0002D6805F03F0154B1224DB5FBF1F5184E00
:1006C000361D3668C6F3881605FB06F209E01B4D99
:1006D000B5FBF1F5124E361D3668C6F3881605FBDC
:1006E00006F20F4D2D1D2D68C5F301456D1C6B00E5
:1006F000B2FBF3F5124E356003E0104D104E35603D
:1007000000BF00BF064D08352D68C5F303150E4E1A
:10071000705D0B4D2D68C540094E356070BD000001
:10072000003802400070004008544007003C02407E
:1007300088ED00E0FFFFF6FE103000240024F400F6
:100740001008002000127A001408002008B54FF4A9
:10075000A06001F0CDFB0A208DF8000001208DF88B
:1007600001008DF802008DF80300684601F0C5FB1A
:1007700017208DF8000001208DF801008DF802008F
:100780008DF80300684601F0B8FB28208DF80000C2
:1007900001208DF801008DF802008DF803006846F5
:1007A00001F0ABFB08BD1CB50121102002F0EEF9F1
:1007B0000121042002F0EAF90121880302F040FA45
:1007C000FFF7C4FF0421084602F045FB102000900B
:1007D00000208DF8040008208DF8050001208DF818
:1007E0000600684601F034FE0521042002F033FBC8
:1007F0002020009000208DF8040008208DF80500CE
:1008000001208DF80600684601F022FE0621042032
:1008100002F021FB4020009000208DF80400082009
:100820008DF8050001208DF80600684601F010FEE5
:100830000D21022002F00FFB4FF400500090002029
:100840008DF8040008208DF8050001208DF80600C1
:10085000684601F0FDFD1CBD10B50A2003F012FC36
:10086000102001F05BFE50B11C48006808B901205F
:1008700000E0002019490860102001F05AFE10BD68
:1008800010B50A2003F0FEFB202001F047FE30B136
:10089000B421134802F0B5FD202001F04AFE4020AB
:1008A00001F02DFE30B1B9210D4802F0AAFD402023
:1008B00001F03FFE10BD10B50A2003F0E3FB4FF43A
:1008C000005001F01CFE38B10021054802F099FDEE
:1008D0004FF4005001F02DFE10BD0000A80242426E
:1008E000000800401CB50121102002F04FF97020D3
:1008F000009000208DF804008DF8060003208DF88C
:10090000050001208DF8070069460D4801F0A0FEA2
:100910000121042002F03AF94FF400500090002029
:100920008DF804008DF8060003208DF805000120E5
:100930008DF807006946034801F08AFE1CBD0000DF
:1009400000100240000802401CB50121102002F0F6
:100950001DF94FF4E060009001208DF804000020A4
:100960008DF8060003208DF8050000208DF80700A3
:100970006946164801F06CFE4FF48071134801F08F
:10098000E3FE4FF40071114801F0DEFE4FF4806188
:100990000E4801F0D9FE1CBD1CB50121022002F059
:1009A000F5F84FF48060009001208DF804000020DD
:1009B0008DF8060003208DF8050000208DF8070053
:1009C0006946034801F044FE1CBD000000100240CF
:1009D0000004024030B58BB005460C4601211020C2
:1009E00002F0D4F80121084602F02AF90122092177
:1009F000784801F0B8FE02208DF80800000201904E
:100A000003208DF8090000208DF80A0001208DF8E0
:100A10000B0001A96F4801F01BFE0995A0B2ADF8CB
:100A200020000020ADF82800ADF822008DF82A0043
:100A300008A9694802F0F5FA6020ADF80C00022020
:100A4000ADF81800ADF81A000120ADF80E00042032
:100A5000ADF810000020ADF81C004FF40070ADF8A8
:100A60001E0003A95C4802F071FB08215A4802F0FD
:100A7000FAFC0121584802F03FFB0121564802F0E0
:100A80004AFF0121544802F055FB0BB030BD30B590
:100A90008BB004460D460121084602F0C0F8012142
:100AA000022002F073F801220A214C4801F05BFE9B
:100AB0004FF48060099002208DF8280003208DF803
:100AC000290000208DF82A0001208DF82B0009A9AB
:100AD000424801F0BDFDA8B2ADF818000020ADF805
:100AE0001A000794ADF8200006A94FF0804002F0EC
:100AF00098FA6020ADF804000120ADF8060002204D
:100B0000ADF8100001A9400702F0A6FB0821C806B5
:100B100002F0BFFC0121880702F0EEFA01218807EC
:100B200002F008FB0BB030BD30B58BB004460D466B
:100B30000121042002F073F80121082002F026F8B8
:100B400002220D21264801F00EFE4FF400500990BC
:100B500002208DF8280003208DF8290000208DF850
:100B60002A0001208DF82B0009A91D4801F070FD15
:100B7000A8B2ADF818000020ADF81A000794ADF83F
:100B8000200006A9174802F04CFA6020ADF80400D6
:100B90000120ADF806000220ADF8100000200390FF
:100BA00001A9104802F00BFB08210E4802F064FC7A
:100BB00001210C4802F0A0FA01210A4802F0BAFA19
:100BC0000BB030BD10B504462146064802F019FCB2
:100BD00010BD00000010024000000140000402406F
:100BE000000C0240000800407FB505460C464FF45B
:100BF000A06001F07DF90121084602F010F802958D
:100C0000ADF804400020ADF80C00ADF8060001A9D5
:100C10004FF0804002F005FA01221146900702F0E1
:100C2000A1FE1C208DF8000000208DF8010003209B
:100C30008DF8020001208DF80300684601F05DF98F
:100C40000121880702F076FA7FBD7FB505460C4684
:100C50004FF4A06001F04CF90121022001F0DFFF08
:100C60000295ADF804400020ADF80C00ADF8060088
:100C700001A9854802F0D5F901221146824802F007
:100C800071FE1D208DF8000000208DF8010003206A
:100C90008DF8020001208DF80300684601F02DF95F
:100CA0000121794802F046FA7FBD7FB505460C4622
:100CB0004FF4A06001F01CF90121042001F0AFFF06
:100CC0000295ADF804400020ADF80C00ADF8060028
:100CD00001A96E4802F0A5F9012211466B4802F005
:100CE00041FE1E208DF8000000208DF80100032039
:100CF0008DF8020001208DF80300684601F0FDF830
:100D00000121624802F016FA7FBD1CB50121880757
:100D100002F03FFE00287DD00121880702F04AFE44
:100D200001201023002211460090104600F056FDCD
:100D300001201023024600210090112000F04EFDFA
:100D4000534800780A280BDB012010210223CDE94B
:100D500000104F4802780021222000F0F9FC0EE03C
:100D60004B4800780A280ADA012010210346CDE911
:100D70000010474802780021222000F0E9FC012001
:100D80001023042200210090392000F027FD0120CB
:100D90001023022211210090002000F01FFD0120ED
:100DA0001023032211210090084600F017FD394856
:100DB000007864280BDB012010210323CDE900100B
:100DC000344802781121222000F0C2FC1EE0314894
:100DD00000780A280BDB012010210223CDE9001046
:100DE0002C4802781121222000F0B2FC0EE02948A4
:100DF00000780A280ADA012010210346CDE9001004
:100E0000244802781121222000F0A2FC01201023A6
:100E100021A200E021E0112100903A2000F068FCBE
:100E200001201023062222210090002000F0D6FC91
:100E300001201023072222210090112000F0CEFC77
:100E4000012010210223CDE900101448028822213C
:100E5000084600F07DFC00F086FA1CBD10B50121AB
:100E6000094802F096FD70B10121074802F0A2FD89
:100E70000B48007838B10B48006808B9012000E041
:100E800000200849086010BD000400400008004030
:100E900000080020010800202500000004080020B0
:100EA00002080020A882404210B588B00446012103
:100EB000084601F06BFE0121102001F0C1FE07225F
:100EC0000921BF4801F04FFC07220A21BC4801F06C
:100ED0004AFC02208DF81C0000208DF81E004FF403
:100EE0000070069002208DF81D0006A9B44801F09C
:100EF000AFFB02208DF81C0000208DF81E004FF47F
:100F00008060069002208DF81D0006A9AC4801F013
:100F10009FFB02940020ADF814000C20ADF81200E5
:100F20000020ADF81000ADF80E00ADF80C0002A9DD
:100F3000A44802F082FE0121A24802F006FF01222D
:100F400040F225519F4802F0B6FF25208DF804009D
:100F500001208DF8070000208DF8050002208DF893
:100F6000060001A800F0C9FF08B010BD10B588B098
:100F700004460121082001F009FE0121480401F086
:100F80004EFE07220521904801F0EDFB07220621C5
:100F90008D4801F0E8FB02208DF81C0000208DF840
:100FA0001E002020069002208DF81D0006A986480C
:100FB00001F04EFB02208DF81C0000208DF81E0071
:100FC0004020069002208DF81D0006A97E4801F001
:100FD0003FFB02940020ADF814000C20ADF8120085
:100FE0000020ADF81000ADF80E00ADF80C0002A91D
:100FF000764802F022FE0121744802F0A6FE01228A
:1010000040F22551714802F056FF26208DF8040069
:1010100001208DF8070000208DF805008DF80600EE
:1010200001A800F06AFF08B010BD10B588B00446F2
:101030000121082001F0AAFD0121880401F0EFFD43
:1010400007220821604801F08EFB072209215E4833
:1010500001F089FB02208DF81C0000208DF81E0095
:101060004FF48070069002208DF81D0006A95648A6
:1010700001F0EEFA02208DF81C0000208DF81E0011
:101080004FF40070069002208DF81D0006A94E480E
:1010900001F0DEFA02940020ADF814000C20ADF847
:1010A00012000020ADF81000ADF80E00ADF80C00F5
:1010B00002A9474802F0C1FD0121454802F045FE62
:1010C000012240F22551424802F0F5FE27208DF81A
:1010D000040001208DF8070000208DF80500022093
:1010E0008DF8060001A800F008FF08B010BD2DE93A
:1010F000F04107460C46154600260DE014F8011B8A
:10110000384602F04DFE00BF4021384602F0F8FE9E
:101110000028F9D0701C86B2AE42EFDBBDE8F0814A
:101120000FB430B5CBB0054601AC50A800904FF4D9
:10113000947101A8009B4F9A06F05CFA0020009081
:101140000BE014F8011B284602F02AFE00BF4021E4
:10115000284602F0D5FE0028F9D020780028F0D1EA
:101160004BB030BC5DF814FB10B540F22551184867
:1011700002F0DCFE18B3164802F016FEC4B2312CA1
:1011800003D100201349086012E0322C03D1012062
:10119000104908600CE0332C03D101200E4908608F
:1011A00006E0342C04D100200B4908600B4908707C
:1011B00000BF4021064802F0A3FE0128F9D110BD6E
:1011C0000000024000100140000C024000440040BA
:1011D00000480040A0024242A8824042020800208B
:1011E000032000BF0100A0F10102D0B2FAD1704784
:1011F00010B58021F84801F0A9FA4021F64801F025
:10120000A3FAFFF7EDFF8021F34801F09DFA10BD2E
:1012100010B58021F04801F097FAFFF7E1FF402177
:10122000ED4801F091FAFFF7DBFF4021EA4801F0B9
:101230008DFAFFF7D5FF10BD70B5044600251BE001
:1012400004F0800020B18021E34801F07DFA03E042
:101250008021E14801F07AFAFFF7C2FF4021DE4821
:1012600001F072FAFFF7BCFF4021DB4801F06EFA93
:101270006006040E681CC5B2082DE1DB70BD10B518
:101280008021D54801F060FA4021D34801F05CFA92
:10129000FFF7A6FF8021D04801F058FAFFF7A0FF22
:1012A0004021CD4801F052FAFFF79AFF10BD70B50A
:1012B00005460C46FFF7E3FF7820FFF7BDFFFFF779
:1012C000A7FF1CB14020FFF7B7FF02E00020FFF7A7
:1012D000B3FFFFF79DFF2846FFF7AEFFFFF798FF2C
:1012E000FFF786FF70BD10B504461CB90021A6208B
:1012F000FFF7DDFF012C03D10021A720FFF7D7FF67
:1013000010BD10B504463CB90021C820FFF7CFFF3F
:101310000021A120FFF7CBFF012C07D10021C02025
:10132000FFF7C5FF0021A020FFF7C1FF10BD10B5DA
:1013300000218D20FFF7BBFF00211420FFF7B7FF2E
:101340000021AF20FFF7B3FF10BD10B500218D20A5
:10135000FFF7ADFF00211020FFF7A9FF0021AE200D
:10136000FFF7A5FF10BD70B500242BE004F1B0011C
:10137000C8B20021FFF79BFF00210846FFF797FF47
:1013800000211020FFF793FFFFF779FF7820FFF788
:1013900053FFFFF73DFF4020FFF74EFFFFF738FFF9
:1013A000002509E08D4901EBC501085DFFF744FF09
:1013B000FFF72EFF681CC5B2802DF3DBFFF718FF87
:1013C000601CC4B2082CD1DB70BD70B500240CE0E9
:1013D000002506E00020814901EBC5010855681C85
:1013E000C5B2802DF6DB601CC4B2082CF0DBFFF721
:1013F000BAFF70BDF0B514460B46CF1701EB577717
:10140000C7F3C702CF1701EB5777FF10A1EBC70750
:10141000FEB20123B340DDB24CB1704B03EBC0030D
:101420009B5C2B436D4F07EBC007BB541AE06B4B23
:1014300003EBC0039B5CDB43684F07EBC007BB5467
:10144000664B03EBC0039B5C2B43644F07EBC00769
:10145000BB54624B03EBC0039B5CDB435F4F07EB6A
:10146000C007BB54F0BD2DE9FF4F84B081468A46CA
:101470000020029083460698A0EB09040798A0EB91
:101480000A06CDF80490CDF800A0002C01DD01275C
:1014900005E00CB9002702E04FF0FF376442002E50
:1014A00002DD4FF0010806E016B94FF0000802E037
:1014B0004FF0FF386642B44201DD254600E0354674
:1014C000002003901EE0009AD1B2019AD0B2119A86
:1014D000FFF790FF029820440290B3440298A8427C
:1014E00005DD0298401B0290019838440190AB45FD
:1014F00004DDABEB050B0098404400900398401CC2
:1015000080B20390691C03988842DCDB08B0BDE818
:10151000F08F2DE9F04306460F46904600254446DD
:1015200043E03A1BD1B27219D0B20122FFF762FF39
:101530003A1BD1B2721BD0B20122FFF75BFF3A19FE
:10154000D1B2721BD0B20122FFF754FF3A19D1B2C7
:101550007219D0B20122FFF74DFF7A19D1B23219B8
:10156000D0B20122FFF746FF7A1BD1B23219D0B2B6
:101570000122FFF73FFF7A1BD1B2321BD0B201220A
:10158000FFF738FF7A19D1B2321BD0B20122FFF730
:1015900031FF6D1C05FB05F004FB040008FB180976
:1015A000B9F1000F01DD641E6D1E6000604308FB91
:1015B00008F18842B5DABDE8F0832DE9FE4F074611
:1015C000884692461C460197CDF80080082C07D12A
:1015D0004FF0060924E00000000402404C080020FF
:1015E0002046E31704EB5373DB1021464FEAE47CFB
:1015F00004EB5C7C4FEAEC0CA4EBCC0CBCF1000FD0
:1016000002D04FF0010C01E04FF0000C6344224681
:1016100004EBD27C4FEA6C0C03FB0CF303F0FF09E4
:10162000AAF12000C6B200255EE0082C07D106EB27
:101630004600FE4901EB400010F805B01DE00C2CFF
:1016400007D106EB4600FA4901EB800010F805B01F
:1016500013E0102C05D1F74800EB061010F805B088
:101660000BE0182C07D106EBC600F34901EB800014
:1016700010F805B001E0BDE8FE8F002002901CE0EC
:101680000BF0010028B1414638460C9AFFF7B2FE34
:1016900009E00C9808B9012000E00020024641460C
:1016A0003846FFF7A7FE4FEA6B0B08F1010000F088
:1016B000FF080298401CC0B2029002980828DFDBA5
:1016C000781CC7B2082C0BD004EBD4714A100199D6
:1016D000791A8A4204D1019F00980830C0B2009064
:1016E000DDF80080681CC5B24D459EDB00BFC2E737
:1016F0002DE9F84106460F4614461D46DDF81C80CC
:1017000013E0CDF8008022782B4639463046FFF7AB
:1017100054FF082D02D1B01DC6B205E0284605EBE6
:10172000D07106EB6101CEB2641C2078202802DB68
:1017300020787E28E5DDBDE8F88110B5024601205D
:1017400000E050430B00A1F10104E1B2F9D110BD5A
:101750002DE9FF4F82B0064691461F46DDE90F4A4C
:101760004FF0000B082C01D14FF0020B002530E0A8
:10177000781B401EC1B20A20FFF7DFFFB9FBF0F073
:101780000A21B0FBF1F201FB1208B8F1000F0ED1F3
:1017900004EBD4710BEB610101FB0561C8B2234678
:1017A0003022CDE900A40399FFF707FF0FE004EB17
:1017B000D4710BEB610101FB0561C8B208F1300186
:1017C000CAB22346CDE900A40399FFF7F6FE681CD0
:1017D000C5B2BD42CCDB06B0BDE8F08F2DE9FC4FB1
:1017E0000746884616461C46BB46CDF80480204670
:1017F000E21704EB5272D2102146E31704EB537345
:10180000DB10A4EBC3030BB1012300E000231A4457
:10181000624392B20092002555E0102C05D1874812
:1018200000EB461010F805A01BE0182C07D106EBC2
:10183000C600834901EBC00010F805A011E0202C80
:1018400005D1804800EBC61010F805A009E0402C37
:1018500005D17D4800EB462010F805A001E0BDE869
:10186000FC8F4FF000091CE00AF0010028B141464E
:1018700038460B9AFFF7BEFD09E00B9808B9012026
:1018800000E00020024641463846FFF7B3FD4FEA2C
:101890006A0A08F1010000F0FF0809F1010000F0F8
:1018A000FF09B9F1080FDFDB781CC7B2A7EB0B000B
:1018B000A04204D15F4601980830C0B20190DDF823
:1018C0000480681C85B200988542A6DB00BFC6E78D
:1018D00008B5804689469246002600274BE04FB95E
:1018E0001023324618218020CDF800A0FFF776FFA4
:1018F000701CC6B2464522D14FF0000B1AE00124FD
:1019000010E000250AE0514800EBC400415D601E74
:101910004E4A02EBC0004155681CC5B2082DF2DBEF
:10192000601CC4B2902CECDBFFF71DFD0BF1010035
:1019300000F0FF0B4FEA09105845E0DC0026781C48
:10194000C7B2102F00D10027012410E000250AE0C3
:101950003E4800EBC400415D601E3C4A02EBC00003
:101960004155681CC5B2082DF2DB601CC4B2902C36
:10197000ECDBFFF7F8FCB2E72DE9FF4F05460E461A
:1019800017461C46DDF838904FF0000A0095B34624
:101990002046E21704EB5272D2102146E31704EB03
:1019A0005373DB10A4EBC3030BB1012300E000234E
:1019B0001A44D4B24FF0000858E0002003904EE0E3
:1019C0000D9810F80A0002900AF101001FFA80FA3F
:1019D000002001901DE0029800F0010028B14A4665
:1019E00031462846FFF706FD0AE0B9F1000F01D1A4
:1019F000012000E00020024631462846FFF7FAFCAD
:101A0000029840100290701CC6B20198401CC0B2EF
:101A1000019001980828DEDB681CC5B20098281ADE
:101A2000B84217D1009D0BF1080011E020B2000868
:101A300048B40008BCB80008ACBE000808CC0008D8
:101A400008CD000850CD0008D0CD00084C0800207B
:101A500000F0FF0B5E460398401CC0B20390039851
:101A6000B842ADDB08F1010000F0FF08A045A4DB9F
:101A7000BDE8FF8F1CB50121022001F087F840204E
:101A8000009001208DF8040000208DF8060002204F
:101A90008DF805006946554800F0DAFD40215348AD
:101AA00000F052FE8020009001208DF804008DF897
:101AB000060002208DF8050069464C4800F0C8FD7C
:101AC00080214A4800F040FE1020009001208DF84F
:101AD000040000208DF8060002208DF805006946FC
:101AE000434800F0B5FD1021414800F02DFE1021C3
:101AF0003F4800F02BFEC82002F0C4FA10213C48F9
:101B000000F022FE0021AE20FFF7D1FB00210846A5
:101B1000FFF7CDFB00211020FFF7C9FB002140207B
:101B2000FFF7C5FB00218120FFF7C1FB0021CF207B
:101B3000FFF7BDFB0021A120FFF7B9FB0021C82062
:101B4000FFF7B5FB0021A620FFF7B1FB0021A8207D
:101B5000FFF7ADFB00213F20FFF7A9FB0021D320B9
:101B6000FFF7A5FB00210846FFF7A1FB0021D520C8
:101B7000FFF79DFB00218020FFF799FB0021D92072
:101B8000FFF795FB0021F120FFF791FB0021DA2000
:101B9000FFF78DFB00211220FFF789FB0021DB20DE
:101BA000FFF785FB00214020FFF781FB002120206B
:101BB000FFF77DFB00210220FFF779FB00218D203C
:101BC000FFF775FB00211420FFF771FB0021A42013
:101BD000FFF76DFB0021A620FFF769FBFFF7F5FB80
:101BE0000021AF20FFF763FB1CBD00000004024092
:101BF000000C024010B56248006820F0C000604947
:101C000008600846006840F04000086000205D4918
:101C10000860142002F036FA01205B49C1F88C02FA
:101C20001E2002F0E7F910BD10B5002454480068EA
:101C300020F0C0005249086008460068086004E0CF
:101C4000601CC4B2012002F0D5F94E48803800680B
:101C500008B1642CF4DB642C01DB012010BD0024EE
:101C600004E0601CC4B2012002F0C4F94548803889
:101C7000006808B9642CF4DB642C01DB0120EDE77B
:101C80000020EBE710B5002404E0601CC4B2012082
:101C900002F0B0F93B488038006808B1642CF4DBEE
:101CA000002404E0601CC4B2012002F0A3F935480E
:101CB0008038006808B9642CF4DB282002F09AF917
:101CC00030488038006808B1012010BD0020FCE7D2
:101CD00070B50024002506E06006040EFFF7D2FF71
:101CE0000443681CC5B2082DF6DB204670BD7CB5E8
:101CF00005460E46FFF77EFFFFF796FFF8B9002472
:101D000005E0FFF7E5FF0DF80400601CC4B2052CE8
:101D1000F7DB9DF800009DF8011008449DF80210C3
:101D200008449DF8031008449DF80410884208D127
:101D30009DF8000030709DF80200287001E001203D
:101D40007CBD0020FCE71CB50121084600F01EFF09
:101D50000820009001208DF8040000208DF8060076
:101D600002208DF8050001208DF80700694604481F
:101D700000F06EFCFFF73EFFFFF756FF1CBD0000B2
:101D8000000002408C0240420000404200B58DB08D
:101D90000121084600F0FAFE0121042000F0F6FEC1
:101DA0000121022000F0F2FE0121080200F048FFAC
:101DB00001200B9003208DF8300000208DF83300B7
:101DC0000BA9374800F044FC01200B900BA93548C3
:101DD00000F03EFC03200B900BA9334800F038FCC8
:101DE0000121080200F081FF00214FF4807000F013
:101DF0007CFF002007900A9009904FF480300890F3
:101E000007A800F01FF9002001908DF808008DF858
:101E100009000390059001208DF8180001A92348BE
:101E200000F0E1F80121214800F023F90DB000BDD8
:101E300010B504460723012221461C4800F059F939
:101E40001A4800F0B2F900BF0221184800F0CEFA9B
:101E50000028F9D0154800F0E4F910BD2DE9F04153
:101E600007460D460024002608E03846FFF7E0FF4D
:101E70000444052002F006F9701CC6B2AE42F4DB41
:101E8000B4FBF5F4B4F57A6F01D94FF47A642820E5
:101E9000B4FBF0F0C0F16400C0B2BDE8F081000016
:101EA00000000240000802400004024000200140FF
:101EB0000948804709480047FEE7FEE7FEE7FEE7DE
:101EC000FEE7FEE7FEE7FEE7FEE7FEE7044805491A
:101ED000054A064B704700001906000889010008F2
:101EE000B00D0020B0130020B00F0020B00F002074
:101EF00032490143324A1160704770B50021002316
:101F00000F22C4781CB32E4C246804F4E064C4F59A
:101F1000E064C4F30721C1F10404E3B20A41447848
:101F20009C40E1B28478144021430C07210E254CDB
:101F300005786155047804F01F050124AC4005784C
:101F40006D11AD0005F1E025C5F8004109E0047808
:101F500004F01F050124AC401B4D0678761145F8AE
:101F6000264070BD194A0A400243154B1B1F1A60D8
:101F7000704739B1124A121D12680243104B1B1DE3
:101F80001A6006E00E4A121D126882430C4B1B1D9C
:101F90001A607047042808D14FF0E021096941F028
:101FA00004014FF0E022116107E04FF0E0210969E0
:101FB00021F004014FF0E022116170470000FA05A2
:101FC0000CED00E000E400E080E100E080FFFF1F96
:101FD00010B50121080200F088FE00214FF4807046
:101FE00000F083FE10BD30B502460020002350688B
:101FF000F84C20400D790C6844EA052420435060D9
:102000009068F54C2040D1E903542C438D682C4353
:102010004D7944EA450420439060D06A20F4700072
:102020000C7D641EE4B2234340EA0350D06230BD0D
:1020300000210160017141718160C1600161012174
:10204000017570470021E54A1168E54A1140D0E961
:1020500000231A4383681A43C3681A431143E14AB1
:10206000C2F8041370470021016041608160C160C3
:10207000704721B1826842F00102826003E0826809
:1020800022F00102826070470A4600214168D64B67
:1020900019401143416070474162826270470A46AD
:1020A0000021416821F01F0111434160704738B1A0
:1020B000CA49096841F40001CA4AC2F8041306E09B
:1020C000C649096821F40001C64AC2F804137047E2
:1020D00038B1C249096841F48001C24AC2F8041308
:1020E00006E0BE49096821F48001BE4AC2F8041323
:1020F0007047F0B504460D4600200021092D11DD82
:10210000E068A5F10A0606EB4607072606FA07F17E
:102110008843A5F10A0606EB460603FA06F10843D2
:10212000E0600CE0206905EB4507072606FA07F199
:10213000884305EB450603FA06F108432061072AA8
:102140000FDA606B561E06EB86071F2606FA07F1AC
:102150008843561E06EB860605FA06F108436063BF
:1021600022E00D2A0FDA206BD61F06EB86071F260A
:1021700006FA07F18843D61F06EB860605FA06F134
:102180000843206310E0E06AA2F10D0606EB860723
:102190001F2606FA07F18843A2F10D0606EB860614
:1021A00005FA06F10843E062F0BD816841F0804124
:1021B00081607047014600208A6802F080420AB1BF
:1021C000012000E00020704721B1826842F4806263
:1021D000826003E0826822F480628260704721B1ED
:1021E000826842F00202826003E0826822F002020A
:1021F0008260704710B50A4600210023416821F42F
:102200006041531E41EA4331416010BD21B1426833
:1022100042F40062426003E0426822F400624260DD
:1022200070470146C86C80B270476C48001D00685A
:10223000704721B1826842F48072826003E0826854
:1022400022F480728260704721B1826842F4007289
:10225000826003E0826822F400728260704738B1C5
:102260005E49096841F400515E4AC2F8041306E071
:102270005A49096821F400515A4AC2F804137047B8
:10228000F0B504461546002000220026092911DD7C
:10229000E068A1F10A0707EB470C072707FA0CF2E1
:1022A0009043A1F10A0707EB470703FA07F210432F
:1022B000E0600CE0206901EB410C072707FA0CF203
:1022C000904301EB410703FA07F210432061A06B32
:1022D000C0F30156EF1C06F1010CA7EB0C0707EB4E
:1022E000870C1F2707FA0CF29043EF1C06F1010C34
:1022F000A7EB0C0707EB870701FA07F21043A0636F
:10230000F0BD10B50A4600210023816B21F4401175
:10231000531E41EA0351816310BD08B500230093A9
:102320000090009B0B440093009B1A6008BD0A4676
:102330000021816821F470211143816070470A46B1
:102340000021816821F44011114381607047816848
:1023500041F4800181607047014600208A6802F4E0
:1023600080020AB1012000E00020704721B14268DC
:1023700042F48062426003E0426822F4806242607C
:10238000704721B1426842F48052426003E04268E3
:1023900022F480524260704708B502460020009047
:1023A000009201F12800009B1844009000980068FA
:1023B00080B208BD10B50B460021D9B2012404FA41
:1023C00001F11AB144680C43446002E044688C4354
:1023D000446010BDFFFEFFFCFDF7FFC00423014079
:1023E000E030FCFF00200140FFFD3FFF02460020DF
:1023F00013680B400BB1012000E000207047CA4376
:102400000260704770B502460020002300240B12C2
:10241000556801268E4005EA060415681D4015B171
:102420000CB1012000E0002070BD00220A12D3434D
:1024300003607047002041490860091D0860091DBC
:102440000860091D08603E483C4914310860704727
:1024500000213A498279002A3AD00A461268036874
:102460009A430B461A600A1D126803689A430B1DB3
:102470001A60027911440A6803681A430A602F4AF5
:102480000832126803689A432C4B08331A601A1DED
:10249000126803689A43294B0C331A604279102A58
:1024A0000ED11A1F126803681A43244B08331A60AE
:1024B0001A1D126803681A43204B0C331A600DE092
:1024C0001E49427911440A6803681A430A6005E00C
:1024D000027911440A6803689A430A607047002130
:1024E000016001710C214171002181717047134914
:1024F000103109680143114A1032116070470146DA
:1025000000200E4A143212680A400AB1012000E08D
:1025100000207047094914310860704701460020C7
:10252000064A143212680A400AB1012000E0002075
:10253000704702491431086070470000003C0140B8
:10254000FFFF7F0010B504469848844208D101215E
:10255000084600F086FB0021012000F082FB76E0B7
:102560009348844208D10121022000F07AFB002127
:10257000022000F076FB6AE08E48844208D10121F7
:10258000042000F06EFB0021042000F06AFB5EE0F6
:102590008948844208D10121082000F062FB002113
:1025A000082000F05EFB52E08448844208D10121FB
:1025B000102000F056FB0021102000F052FB46E0F6
:1025C0007F48844208D10121202000F04AFB0021ED
:1025D000202000F046FB3AE07A48844208D10121ED
:1025E000402000F03EFB0021402000F03AFB2EE0AE
:1025F0007548844208D10121802000F032FB00217F
:10260000802000F02EFB22E07048844208D1012196
:10261000801500F026FB0021A01500F022FB16E03B
:102620006B48844208D10121401500F01AFB0021BB
:10263000601500F016FB0AE06648844207D10121CC
:10264000001500F00EFB0021201500F00AFB10BD64
:10265000F0B50A4600210023002400BF3DE001251B
:1026600005FA01F3156805EA03049C4234D10568B4
:102670004F000326BE40B543056015794E00B540B6
:102680000668354305601579012D02D01579022DB4
:1026900016D185684F000326BE40B5438560557945
:1026A0004E00B540866835438560456801268E40FA
:1026B000B5434560456896798E40B6B2354345606E
:1026C000C5684F000326BE40B543C560D5794E00AE
:1026D000B540C6683543C560491C1029BFD3F0BD5D
:1026E0004FF6FF7101600021017141718171C1716B
:1026F000704708B54FF480320092009A0A43009266
:10270000009AC261C161009AC261C2690092C26945
:10271000009208BD0246002013690B400BB1012056
:1027200000E0002070470146086980B27047024609
:10273000002053690B400BB1012000E000207047DE
:102740000146486980B270470183704741837047F2
:102750000AB1018300E041837047416170474269DB
:102760004A4042617047F0B5002300244D07ED0E4A
:1027700002FA05F3CE1000F1200555F826504E0759
:10278000F70E0F26BE40B543CF1000F1200646F8E5
:102790002750CE1000F1200555F8265045EA0304D5
:1027A000CE1000F1200545F82640F0BD00000240A3
:1027B0000004024000080240000C024000100240E9
:1027C0000014024000180240001C02400020024099
:1027D0000024024000280240F948006840F001004F
:1027E000F74908600020F64908310860F44800689D
:1027F000F4490840F2490860F348091D0860F348AD
:10280000EF4984310860F0481038091D0860EC4831
:10281000006820F48020EA4908600020E8490C3173
:102820000860E7498C31086070470021E44A921C37
:10283000117011460870704710B501460022002340
:1028400000204A11012A02D1DD4C236808E0022A47
:1028500003D1DB4C7034236802E0D94C7434236814
:1028600001F01F02012494401C400CB1012000E043
:10287000002010BD38B5002000900024002500BFC6
:102880003120FFF7D9FF05460098401C00900098C2
:10289000B0F5A04F01D0002DF2D03120FFF7CCFFD2
:1028A00008B1012400E00024204638BD0146002084
:1028B000C34A106820F0F80040EAC1001060704779
:1028C000C349086070470021BD4A70321170117011
:1028D000012802D004280AD104E00121B84A70324C
:1028E000117005E00521B64A7032117000E000BF9A
:1028F00000BF7047B7490860704770B5049C41EA53
:1029000082150126C6EB530645EA0645054345EA0E
:102910000465AB4E361D356070BDAD490866704725
:10292000820142EA0172A64B84331A607047A849BB
:102930008866704710B5830143EA016343EA027376
:102940009F4C8834236010BDA14908677047A04997
:10295000C864704702460020994B0833186820F07D
:10296000EC6042EA01031843954B08331860704746
:1029700002460020924B0833186820F0784042EA63
:10298000010318438E4B083318607047014600203E
:102990008B4A0832106820F003000843106070472B
:1029A00087480830006800F00C007047014600209E
:1029B000834A0832106820F0F00008431060704726
:1029C000014600207E4A0832106820F4E050084397
:1029D0001060704701460020794A0832106820F4E0
:1029E000604040EAC10010607047F0B5002100224D
:1029F0000024022500260223714F08373F6807F0A4
:102A00000C0121B1042905D0082937D105E0724F06
:102A1000076036E0714F076033E0694F3F1D3F6844
:102A2000C7F38056664F3F1D3F6807F03F036EB106
:102A30006A4FB7FBF3F7DFF888C10CF1040CDCF840
:102A400000C0CCF3881C07FB0CF40CE0624FB7FB12
:102A5000F3F7DFF86CC10CF1040CDCF800C0CCF328
:102A6000881C07FB0CF4564F3F1D3F68C7F3014716
:102A70007F1C7D00B4FBF5F7076002E0564F07604E
:102A800000BF00BF4E4F08373F6807F0F00109094B
:102A9000534F7A5C0768D7404760494F08373F6813
:102AA00007F4E051890A4E4F7A5C4768D740876047
:102AB000434F08373F6807F46041490B484F7A5C41
:102AC0004768D740C760F0BD002100F44072B2F5FE
:102AD000407F0AD13A4A0832116821F4F811414A7C
:102AE00002401143364A08321160354A703212688A
:102AF000C0F30B031A43324B70331A6070473549E9
:102B00004439086070473349403908607047364996
:102B10000860704701460020294A8C32106820F076
:102B20001F004A1E1043264A8C321060704701462F
:102B30000020234A8C32106820F4F8504A1E40EAE4
:102B400002201F4A8C3210607047014600201C4A48
:102B50008C32106820F44010084310607047014622
:102B60000020174A8C32106820F44000084310609F
:102B7000704701460020124A8C32106820F4403021
:102B800008431060704719490860704739B10C4A12
:102B90003032126802430A4B30331A6006E0084AAA
:102BA000303212688243064B30331A607047F9B1F5
:102BB000034A343212680243014B34331A601CE07A
:102BC00000380240FFFFF6EA1030002400300020F9
:102BD00000004742800E47420024F40000127A00B1
:102BE00024080020FFFCFF0F5C014742E011474230
:102BF0008F4A126882438E4B1A60704739B18C4AF3
:102C0000121D126802438A4B1B1D1A6006E0884A97
:102C1000121D12688243864B1B1D1A60704739B122
:102C2000834A0C3212680243814B0C331A6006E06F
:102C30007F4A0C32126882437D4B0C331A60704716
:102C400039B17B4A103212680243794B10331A6053
:102C500006E0774A103212688243754B10331A60CF
:102C6000704739B1724A243A12680243704B243BD0
:102C70001A6006E06E4A243A126882436C4B243B89
:102C80001A60704739B16A4A203A12680243684BA9
:102C9000203B1A6006E0664A203A12688243644B81
:102CA000203B1A60704739B1614A1C3A12680243EE
:102CB0005F4B1C3B1A6006E05D4A1C3A1268824377
:102CC0005B4B1C3B1A60704739B1594A143A126881
:102CD0000243574B143B1A6006E0554A143A1268F7
:102CE0008243534B143B1A60704739B1504A103A33
:102CF000126802434E4B103B1A6006E04C4A103AF1
:102D0000126882434A4B103B1A60704739B1484AF7
:102D10001C3212680243464B1C331A6006E0444AD8
:102D20001C3212688243424B1C331A60704739B11F
:102D30003F4A2032126802433D4B20331A6006E0BE
:102D40003B4A203212688243394B20331A60704765
:102D500039B1374A243212680243354B24331A60A2
:102D600006E0334A243212688243314B24331A601E
:102D7000704739B12E4A2C32126802432C4B2C3347
:102D80001A6006E02A4A2C3212688243284B2C3300
:102D90001A60704739B1264A303212680243244B18
:102DA00030331A6006E0224A303212688243204BE8
:102DB00030331A607047012808D11D493C31096839
:102DC00041F008011A4A3C32116007E018493C31D1
:102DD000096821F00801164A3C321160704739B188
:102DE000134A273A12780243114B273B1A7006E028
:102DF0000F4A273A127882430D4B273B1A707047CF
:102E00000B484030006840F080700949403108604C
:102E1000704701460020064A283A12680A400AB163
:102E2000012000E0002070470149263908707047F2
:102E30003438024010B501218803FFF756FF002106
:102E40004FF48040FFF751FF10BD1C4908607047E8
:102E50001B490862704730B500228B071C0F0F23F7
:102E600003FA04F2154B08338C1053F824309343C3
:102E7000124C08348D1044F8253023468C1053F83A
:102E800024308C07240F00FA04F423430B4C08343D
:102E90008D1044F8253030BD0949DC310860704799
:102EA000084908607047002004492031096801F48E
:102EB000807109B1012000E0002070470038014016
:102EC000000027420004274210B50446FE48844211
:102ED00008D101210846FFF708FF00210120FFF774
:102EE00004FF9DE0B4F1804F08D101210846FFF7AF
:102EF000EBFE00210120FFF7E7FE91E0F34884425A
:102F000008D101210220FFF7DFFE00210220FFF798
:102F1000DBFE85E0EE48844208D101210420FFF762
:102F2000D3FE00210420FFF7CFFE79E0E948844278
:102F300008D101210820FFF7C7FE00210820FFF774
:102F4000C3FE6DE0E448844208D101211020FFF760
:102F5000BBFE00211020FFF7B7FE61E0DF4884428E
:102F600008D101212020FFF7AFFE00212020FFF72C
:102F7000ABFE55E0DA48844208D101210220FFF778
:102F8000B4FE00210220FFF7B0FE49E0D54884429C
:102F900009D101210804FFF7A8FE00214FF4803079
:102FA000FFF7A3FE3CE0D048844209D10121480448
:102FB000FFF79BFE00214FF40030FFF796FE2FE055
:102FC000CA48844209D101218804FFF78EFE0021FE
:102FD0004FF48020FFF789FE22E0C548844208D1E3
:102FE00001214020FFF770FE00214020FFF76CFE1A
:102FF00016E0C048844208D101218020FFF764FE1A
:1030000000218020FFF760FE0AE0BB48844207D120
:1030100001218015FFF758FE0021A015FFF754FE8F
:1030200010BD00220288A84B98420ED0AC4B9842AB
:103030000BD0B0F1804F08D0A44B984205D0A44BE0
:10304000984202D0A34B984204D14FF68F731A4096
:103050004B881A43A04B984207D0A04B984204D00B
:103060004FF6FF431A400B891A4302804B68C36234
:103070000B880385944B984202D0994B984201D11A
:103080008B7A03860123838270474FF0FF314160C2
:103090000021018001814180817270470185828217
:1030A00070470A46002101884FF68F73194011437B
:1030B0000180704741627047C16270470146486AAB
:1030C00070470146088D704721B1028842F0020224
:1030D000028004E002884FF6FD731A4002807047B8
:1030E00021B1028842F00402028004E002884FF617
:1030F000FB731A400280704721B1028842F08002BF
:10310000028004E002884FF67F731A400280704705
:1031100002884FF6F7731A40028002880A43028041
:10312000704702884FF6FF431A40028002880A4324
:103130000280704721B1028842F00102028004E05F
:1031400002884FF6FE731A400280704770B5002463
:1031500000220023058C4FF6FE7635400584028C54
:103160008388048B4FF68F752C40B51E2C400D883C
:103170002C43751E2A408D892A434D882A43524D7F
:10318000A84202D0564DA84213D14FF6F7752A40F7
:10319000CD892A434FF6FB752A408D882A434FF686
:1031A000FF652B404FF6FF552B400D8A2B434D8A70
:1031B0002B43838004838D684563028470BD70B5A2
:1031C000002400220023058C4FF6EF76354005845D
:1031D000028C8388048B48F6FF752C404FF6FF4520
:1031E0002C400D884FF6FF7606EA05252C434FF656
:1031F000DF752A408D8906EA05152A434D8806EABF
:1032000005152A43304DA84202D0354DA8421DD1A4
:103210004FF67F752A40CD894FF6FF7606EA0515F1
:103220002A434FF6BF752A408D8806EA05152A43C2
:103230004FF6FF352B404FF2FF752B400D8A06EA03
:1032400085052B434D8A06EA85052B43838004833D
:103250008D688563028470BD70B500240022002350
:10326000058C4FF6FF6635400584028C8388848B7D
:103270004FF68F752C404FF6FC752C400D882C4373
:103280004FF6FF552A408D894FF6FF7606EA052551
:103290002A434D8806EA05252A430B4DA84202D051
:1032A0000F4DA84238D14FF2FF752A40CD894FF615
:1032B000FF7606EA05252A434FF6FF352A408D881A
:1032C00006EA05252A4319E00000014000040040F9
:1032D00000080040000C00400010004000140040B6
:1032E000000401400040014000440140004801400A
:1032F00000180040001C0040002000404EF6FF7502
:103300002B404DF6FF752B400D8A06EA05152B4321
:103310004D8A06EA05152B43838084838D68C56337
:10332000028470BD70B5002200230024058C4EF687
:10333000FF7635400584038C8488828B48F6FF75C0
:103340002A404FF6FF452A400D884FF6FF7606EAE1
:1033500005252A434DF6FF752B408D8906EA053574
:103360002B434D8806EA05352B43FE4DA84202D07B
:10337000FD4DA84208D14BF6FF752C400D8A4FF643
:10338000FF7606EA85152C43848082838D68056468
:10339000038470BD00210180418081808160818132
:1033A000C18101824182704770B50346002000242C
:1033B0001846183001258D40ACB21D8CA5431D84E4
:1033C00009B108290AD100EB610005684FF68F7634
:1033D000354005600568154305600FE00D1FC5F316
:1033E0004E052844056848F6FF76354005600568B7
:1033F0004FF6FF7606EA02263543056070BD41634D
:10340000704781637047C1637047016470470A4623
:103410000021018B4FF68F731940114301837047D0
:103420000A460021018B48F6FF7319404FF6FF73DF
:1034300003EA02231943018370470A460021818B66
:103440004FF68F7319401143818370470A4600215C
:10345000818B48F6FF7319404FF6FF7303EA02238E
:103460001943818370470A460021018B4FF6F77399
:1034700019401143018370470A460021018B4FF226
:10348000FF7319404FF6FF7303EA022319430183C8
:1034900070470A460021818B4FF6F773194011439C
:1034A000818370470A460021818B4FF2FF731940D8
:1034B0004FF6FF7303EA02231943818370470A46DC
:1034C0000021018B4FF6FB731940114301837047B4
:1034D0000A460021018B4FF6FF3319404FF6FF7368
:1034E00003EA02231943018370470A460021818BB6
:1034F0004FF6FB7319401143818370470A46002140
:10350000818B4FF6FF3319404FF6FF7303EA022316
:103510001943818370470A460021018B4FF67F7360
:1035200019401143018370470A460021018BC1F302
:103530000E014FF6FF7303EA02231943018370471C
:103540000A460021818B4FF67F7319401143818316
:1035500070470A460021818BC1F30E014FF6FF73BD
:1035600003EA02231943818370470A460021018C34
:103570004FF6FD7319401143018470470A4600213C
:10358000018C4FF6F77319401143018470470A46C6
:103590000021018C4FF6DF7319404FF6FF7303EAE9
:1035A00002131943018470470A460021018C4FF62B
:1035B0007F7319404FF6FF7303EA02131943018426
:1035C00070470A460021018C4FF6FF5319404FF611
:1035D000FF7303EA02231943018470470A4600215E
:1035E000018C4FF2FF7319404FF6FF7303EA022379
:1035F0001943018470470A460021018C4DF6FF7380
:1036000019404FF6FF7303EA0233194301847047F0
:1036100030B5002301248C40A3B2048C9C43048465
:10362000048C02FA01F5ADB22C43048430BD30B5F0
:10363000002304248C40A3B2048C9C430484048C97
:1036400002FA01F5ADB22C43048430BD828B4FF2F7
:10365000FF331A408283828B4FF6FF7303EA012304
:103660001A4382837047F0B50C46154600210022AC
:103670000026078C4EF6FF7C07EA0C070784818B37
:10368000028C4FF6FF7707EA043640F6FF473940D1
:103690004FF6FF7707EA052739434FF6FF7707EA2A
:1036A0000337394345F6FF773A4046F480573A43AB
:1036B00081830284F0BD828B4FF6F3731A408283BC
:1036C000828B0A4382837047F0B50C461546002171
:1036D00000220026078C4FF6FF6C07EA0C070784D0
:1036E000818B028C4FF6FF7707EA04264FF60C77A2
:1036F00039404FF6FF7707EA03172F4339434FF25C
:10370000FF573A4046F480773A4381830284F0BD04
:10371000028B4FF2FF331A400283028B4FF6FF7386
:1037200003EA01231A4302837047F0B50C4615469D
:10373000002100220026078C4FF6EF7C07EA0C07D9
:103740000784018B028C4FF6FF7707EA041640F6D8
:10375000FF4739404FF6FF7707EA033739434FF603
:10376000FF7703E0000001400004014007EA05275D
:1037700039434FF65F773A4046F010073A430183EA
:103780000284F0BD028B4FF6F3731A400283028B62
:103790000A4302837047F0B50C461546002100220B
:1037A000068C4FF6FE773E400684018B028C4FF666
:1037B0000C7631407E1C06EA03162E4331434FF649
:1037C000F576324044F00106324301830284F0BDB5
:1037D00070B505460C46208850B92389A2886188B7
:1037E0002846FFF7D8FFE1882846FFF7CBFF25E002
:1037F000208804280AD12389A28861882846FFF7F7
:1038000094FFE1882846FFF783FF17E02088082807
:103810000AD12389A28861882846FFF755FFE188ED
:103820002846FFF748FF09E02389A28861882846D7
:10383000FFF719FFE1882846FFF708FF70BD002158
:1038400001804180012181800021C1800181704778
:103850002DE9F04105460C4600260127608808B98D
:10386000022600E00026A088012801D1022700E0FE
:1038700001272088A0B92389A28861882846FFF7FC
:103880008AFFE1882846FFF77DFF23893A463146C3
:103890002846FFF74AFFE1882846FFF739FF13E083
:1038A0002389A28861882846FFF73FFFE1882846E0
:1038B000FFF72EFF23893A4631462846FFF76BFF74
:1038C000E1882846FFF75EFFBDE8F0810146486BBE
:1038D00070470146886B70470146C86B70470146C8
:1038E000086C70470A884B881A438B881A43CB8828
:1038F0001A430B891A434B891A438B891A43A0F840
:10390000442070470021018041808180C180018175
:1039100041818181704731B1B0F8442042F40042C6
:10392000A0F8442005E0B0F84420C2F30E02A0F84D
:103930004420704721B1828842F00402828004E072
:1039400082884FF6FB731A408280704721B18288CB
:1039500042F00102828004E082884FF6FE731A4032
:10396000828070471AB183890B43838102E0838987
:103970008B43838170478182704702460020138AFF
:103980000B400BB1012000E000207047CA430282C7
:10399000704730B50246002000230024158A05EA4E
:1039A0000103958905EA010413B10CB1012000E07F
:1039B000002030BDCA430282704741EA0203A0F8EA
:1039C000483070471AB183890B43838102E08389B1
:1039D0008B438381704721B1828842F00802828044
:1039E00004E082884FF6F7731A408280704701899D
:1039F0004FF6F8721140018170470A460021018993
:103A00004FF68F73194011430181704730B504465A
:103A10000D4629462046FFF7F0FF208940F00700B9
:103A2000208130BD2DE9F04104460D4616461F4663
:103A3000602D06D13B46012231462046FFF775FE38
:103A400005E03B46012231462046FFF7A4FE294609
:103A50002046FFF7D2FF208940F007002081BDE813
:103A6000F08130B50C4600210189C9B24FF6FF75CF
:103A700005EA0325154325432943018130BD2DE97E
:103A8000F04105460E4617469846002443463A46FE
:103A900031462846FFF7E5FF2C894FF6F8700440C1
:103AA00044F007044FF68F70044044F070042C81FA
:103AB000BDE8F081F0B504460D4616461F463B466C
:103AC000324629462046FFF7CCFF208940F480404B
:103AD0002081F0BD82884FF68F731A4082808288E1
:103AE0000A438280704702894FF6F8731A400281B8
:103AF00002890A430281704702894FF67F731A4098
:103B0000028102890A4302817047F0B50C461546CE
:103B10001E460021002200230189028B038C4FF6F0
:103B2000F877394021434FF6FC473A4040F20117FD
:103B30003A434FF6DD773B404FF6FF7707EA06172B
:103B40002F433B43018102830384F0BD21B182886E
:103B500042F08002828004E082884FF67F731A4030
:103B600082807047A0F850107047000010B50446DE
:103B7000FA48844208D101211020FFF7B6F800214D
:103B80001020FFF7B2F857E0F548844209D101212F
:103B90004804FFF799F800214FF40030FFF794F83C
:103BA0004AE0F048844209D101218804FFF78CF8EB
:103BB00000214FF48020FFF787F83DE0EA48844277
:103BC00009D10121C804FFF77FF800214FF400203C
:103BD000FFF77AF830E0E548844209D10121080571
:103BE000FFF772F800214FF48010FFF76DF823E023
:103BF000DF48844208D101212020FFF776F8002118
:103C00002020FFF772F817E0DA48844209D1012139
:103C10008807FFF759F800214FF08040FFF754F86C
:103C20000AE0D548844207D101214005FFF74CF84E
:103C300000216005FFF748F810BD2DE9FF47054654
:103C40000E460024A14600BFA046B08900B100BFC7
:103C50002C8A24F44054F08804432C82AC8941F22D
:103C60000C608443B0883189084371890843044358
:103C7000AC81AC8A24F44074B0890443AC826846B9
:103C8000FEF7B3FEB548854202D0B948854202D15D
:103C9000DDF80C9001E0DDF80890A88900F4004000
:103CA00040B109EBC90000EB091031684900B0FBD5
:103CB000F1F707E009EBC90000EB09103168890052
:103CC000B0FBF1F76420B7FBF0F004012009642198
:103CD00001FB1078A88900F4004040B1322000EBCD
:103CE000C800B0FBF1F000F00700044308E0322008
:103CF00000EB08106421B0FBF1F000F00F0004436A
:103D00002C81BDE8FF874FF41651016000218180AE
:103D1000C18001810C21418100218181704710B552
:103D200002460020108A20F470600B884C882343E0
:103D30008C882343CC8823431843108210BD002174
:103D4000018041808180C180704721B1828942F425
:103D50000052828104E082894DF6FF731A4082810D
:103D60007047028B02F47F420283028B0A43028374
:103D7000704721B1828942F40042828103E0828946
:103D8000C2F30E028281704721B1828A42F400623E
:103D9000828204E0828A4FF2FF731A408282704767
:103DA000C1F308028280704701468888C0F308008A
:103DB0007047028A4FF6F0731A400282028A0A4361
:103DC0000282704721B1828942F00202828104E0BE
:103DD00082894FF6FD731A408281704782894FF2C3
:103DE000FF731A40828182890A4382817047028A66
:103DF0004FF6DF731A400282028A0A43028270473A
:103E000021B1028A42F48042028204E0028A4BF627
:103E1000FF731A4002827047818941F0010181815C
:103E2000704721B1828A42F00802828204E0828ACD
:103E30004FF6F7731A4082827047028BD2B2028328
:103E4000028B42EA01220283704721B1828A42F04A
:103E50002002828204E0828A4FF6DF731A40828257
:103E6000704721B1828A42F01002828204E0828A85
:103E70004FF6EF731A4082827047828A4FF6FB73C7
:103E80001A408282828A0A438282704721B1828AE2
:103E900042F00202828204E0828A4FF6FD731A40E9
:103EA000828270471AB1838A0B43838202E0838A3D
:103EB0008B4383827047F0B503460024002600251B
:103EC000002040F66A17B94200D100BF1846C1F37E
:103ED000421401F01F06012707FA06F5012C01D153
:103EE0000C3004E0022C01D1103000E014301AB183
:103EF00007682F43076002E00768AF430760F0BD23
:103F000002460020B1F5007F00D100BF13880B40AE
:103F10000BB1012000E00020704701F40072B2F5FF
:103F2000007F00D100BFCA430280704770B50246CF
:103F3000002400230025002040F66A16B14200D17B
:103F400000BFC1F3421501F01F03012606FA03F377
:103F5000012D13D19689334017E000000010014075
:103F60000044004000480040004C00400050004029
:103F70000014014000780040007C0040022D02D176
:103F8000168A334001E0968A33400C12012606FA65
:103F900004F41688344013B10CB1012000E0002075
:103FA00070BD10B50022002340F66A14A14200D172
:103FB00000BF0A1201249440A3B2DC43048010BD68
:103FC00010B504466FF00400FDF7E4FFE11704EBC1
:103FD0005171C1F3C701394A11701046007800EBE6
:103FE0004001C1EBC0104FF6FF7101EAC000344937
:103FF000088010BD0146314A12784A434FF0E02351
:104000005A6100229A611A46126942F001021A614D
:1040100000BF4FF0E022106900F001021AB100F475
:104020008032002AF5D04FF0E022126922F001021E
:104030004FF0E0231A6100229A6170470146204A3E
:1040400012884A434FF0E0235A6100229A611A46CF
:10405000126942F001021A6100BF4FF0E0221069BC
:1040600000F001021AB100F48032002AF5D04FF0BE
:10407000E022126922F001024FF0E0231A610022CF
:104080009A61704770B504464FF4077094FBF0F0E6
:10409000C6B24FF4077094FBF0F100FB114085B2FB
:1040A00005E04FF40770FFF7C9FF701EC6B2002E7F
:1040B000F7D115B12846FFF7C1FF70BD34080020C5
:1040C0003608002010B580217B4803F09DFD0020BC
:1040D0007A49088010BD7948008808B901207047E6
:1040E0007648008876490988884203D100207349C0
:1040F0000880F4E771480088714908800120EEE7E4
:104100002DE9F04104460D46C826204603F09BFCED
:1041100087B23A4621466B48FCF7E9FF0FE0FFF70C
:10412000DAFF48B92946644803F057FC20B1FFF78D
:10413000C9FF0020BDE8F0810A20FFF7A3FF30008F
:10414000A6F10101CEB2EAD10120F3E730B589B082
:1041500004460D46FFF7B6FF2A465BA101A803F00F
:1041600063FA5DA101A8FFF7CBFF20B92A462146DB
:104170005448FCF7BCFF09B030BD70B505460024BB
:1041800000BFFFF7A8FF80B954A14B4803F025FCFE
:10419000044654B13A21204603F003FC044614B10E
:1041A000641C204670BD0020FCE70520FFF76AFF75
:1041B000681E85B2002DE4DC0020F3E710B5FFF7A0
:1041C00081FF48A14948FCF7ABFF03E04FF4FA70C8
:1041D000FFF758FF46A147A0FFF792FF0028F5D14F
:1041E00046A14248FCF79CFF3DA147A0FFF788FF8E
:1041F0004FF4FA70FFF746FF46A13C48FCF790FFEA
:1042000003E04FF4FA70FFF73DFF39A144A0FFF738
:1042100077FF0028F5D146A13448FCF781FF03E081
:104220004FF4FA70FFF72EFF31A145A0FFF768FFAA
:104230000028F5D146A12D48FCF772FF03E04FF4AA
:10424000FA70FFF71FFF45A146A0FFF759FF0028AE
:10425000F5D14CA12548FCF763FF03E04FF4FA7059
:10426000FFF710FF4BA14DA0FFF74AFF0028F5D143
:1042700055A11E48FCF754FF10BD10B540F2255162
:104280001048FFF753FEB0B10C480088802802D3D5
:1042900000200A4908800B48001D0088C1B2074869
:1042A00002880088401C054B188003488154202157
:1042B0000448FFF732FE10BDCC0C00203808002067
:1042C0003A0800200044004041542B4349505345D4
:1042D0004E443D25640D0A003E0000004950442C28
:1042E00000000000302E2041540D0A000010014053
:1042F0004F4B000041540D0A00000000312E2052A7
:1043000053540D0A0000000041542B5253540D0A1F
:1043100000000000322E2043574D4F44450D0A0047
:1043200041542B43574D4F44453D310D0A00000089
:10433000332E2041542B4357444843500D0A00006C
:1043400041542B4357444843503D312C310D0A0012
:10435000342E2043574A41500D0A0000474F542045
:104360004950000041542B43574A41505F44454651
:104370003D22777377222C2238383838383838384D
:10438000220D0A00352E2043495053544152540DFA
:104390000A000000434F4E4E4543540041542B4306
:1043A000495053544152543D22544350222C2262CE
:1043B000726F6B65722E656D71782E696F222C316C
:1043C0003838330D0A000000362E2045535038325D
:1043D000363620496E6974204F4B0D0A00000000EC
:1043E00070B504460E460025206898B90120207358
:1043F000304603F09CF820602068E0B10020606047
:10440000A66003E00020216848556D1CA068A84202
:10441000F8D810E00220207303E0002021684855FE
:104420006D1CA068A842F8D800206060A068B04267
:1044300001D20020206070BD10B50446207B012809
:1044400002D1206803F0A2F8002020606060A06024
:10445000207310BD0246002301230DE002F07F000F
:104460000870D2092AB1087840F080000870491C11
:1044700001E0184670475B1C042BEFDD4FF0FF3066
:10448000F8E7F0B504460D462646012300201060EB
:10449000002114E0775C07F07F07106807FB03003A
:1044A0001060705C00F0800008B9481CF0BDDB01B2
:1044B000B3F5001F02D36FF00100F7E7491CA942D2
:1044C000E8DB4FF0FF30F1E7F8B50446FF2720782E
:1044D0000511012D01DB0E2D01DD3846F8BD032D40
:1044E00024D1002000906A460421601CFFF7C9FF18
:1044F0002044461C0098022803D3207800F00100D5
:1045000008B1FF20EAE77078317840EA0120801C8A
:104510000099884201D9FF20E0E7F8A1B01C03F020
:104520005CFA08B10F2700E0032700E02F46384669
:10453000D4E72DE9FF4F83B082468B469146159C08
:104540000025002002900F270190484603F07BFAD7
:104550000FFA80F8B9F1000F03D1012007B0BDE8D0
:10456000F08F08F10200384487B2109808B145F086
:104570000205129878B145F00405129803F063FA29
:10458000C0B20290139803F05EFA01460298001D33
:104590000844384487B2119820B1012804D0022879
:1045A00008D104E000BF07E045F00C0504E045F049
:1045B000140501E00220D1E700BF149808B145F0CE
:1045C0002405BAF1000F02D0BBF1000F01D1032086
:1045D000C4E745F0C005504603F035FA0646584694
:1045E00003F031FA3044001D384487B23946204682
:1045F000FFF7F6FE206808B90420AFE739462068C7
:1046000003F002FB10216268501C60602068815436
:10461000D4E90023D118781FFFF71CFF00B20190E6
:104620000198002804DA2046FFF706FF052095E7E9
:10463000616801980844606000216268501C6060F5
:104640002068815404216268501C60602068815495
:104650004D216268501C606020688154512162685D
:10466000501C60602068815454216268501C606056
:10467000206881546268501C606020688154042165
:104680006268501C6060206881546168481C6060EA
:10469000206845540698010A6268501C60602068D2
:1046A00081540698C1B26268501C606020688154D1
:1046B000C8F307216268501C6060206881546268FA
:1046C000501C6060206800F80280D4E9001288184D
:1046D0004246494603F06FF960684044606005F067
:1046E0000400B8B30026139808B986A01390129856
:1046F00003F0A9F986B2310A6268501C6060206834
:1047000081546268501C606020688654D4E90012AD
:1047100088183246129903F04EF9606830446060A0
:10472000139803F090F986B2310A6268501C6060F9
:10473000206881546268501C606020688654D4E907
:10474000001288183246139903F035F96068304436
:10475000606000BF05F08000C8B1504603F073F9F7
:1047600086B2310A6268501C6060206881546268B9
:10477000501C606020688654D4E9001288183246C4
:10478000514603F018F960683044606000BF05F0DE
:104790004000C8B1584603F056F986B2310A626843
:1047A000501C6060206881546268501C6060206802
:1047B0008654D4E9001288183246594603F0FBF8B3
:1047C00060683044606000BF0020C7E610B5044652
:1047D00002212046FFF704FE206808B9012010BD21
:1047E000E0216268501C606020688154002162688A
:1047F000501C6060206881540020F0E70146487832
:10480000022801D001207047887810B188780128EB
:1048100001D1C878F7E7FF20F5E72DE9FF4F83B016
:10482000834617469946139C0025002600200290D7
:1048300001908046BBF1000F03D1012007B0BDE815
:10484000F08F00260AE00498805D232803D00498A6
:10485000805D2B2801D10220F0E7761C0498805D52
:104860000028F0D148F03008119808B148F001084C
:1048700006EB0900851C109820B1012804D00228FD
:104880000AD105E000BF09E048F00208AD1C05E0D0
:1048900048F00408AD1C01E00320CFE700BF67B378
:1048A0003878022821D14FF0000A00BF50460AF1A3
:1048B000010A385C7D28F9D1AAF1030A0AF1070040
:1048C00002900298A9EB000AE81CA0EB0A0120461E
:1048D000FFF786FD206808B90420AFE7EA1CA2EBC9
:1048E0000A01206803F090F91FE0691D2046FFF7D8
:1048F00077FD206840B90420A0E70AE024637265D0
:104900007100000000000000691D206803F07CF9C0
:104910000BE0691D2046FFF763FD206808B90420FD
:104920008CE7691D206803F06FF96168481C6060BE
:10493000206800F80180D4E9000281182846FFF7BA
:1049400089FD01900198002804DA2046FFF774FDE4
:10495000052073E76168019808446060C6F3072189
:104960006268501C6060206881546268501C6060FE
:1049700020688654D4E9001288183246049903F05E
:104980001AF8606830446060109860B14FEA1B21EB
:104990006268501C6060206881546268501C6060CE
:1049A000206800F802B0C7B1387802280BD1D4E9EA
:1049B000001288183946029A03F0AFF8616802982D
:1049C0000844606009E0D4E9001288184A46394674
:1049D00003F0A3F860684844606000202EE72DE9EA
:1049E000FF4107460D4690461E460A9C01200021C5
:1049F000CDE90001EB1C0A46FAA1CDE902040A2028
:104A0000FFF70BFF88B96168481C60602068465456
:104A1000C5F307216268501C606020688154626899
:104A2000501C60602068855403E0012004B0BDE89C
:104A3000F0810020FAE72DE9F04F85B080460D4661
:104A40009146012004900027002600244FF0000A20
:104A5000404602F0F8FF00F10D0B584602F067FDEA
:104A600007461FB9049805B0BDE8F08F4246DEA1A5
:104A7000384602F0D9FD384602F0E5FFC6B2F01D17
:104A800000EB050AAAEB050002F051FD044624B92B
:104A9000384602F07BFD0498E5E7022020700020F4
:104AA0006070A67032463946E01C03F036F8290ED5
:104AB000F01C2154C5F30741301D2154C5F30721D3
:104AC000701D2154B01D255401200021CDE90001A5
:104AD00053462246C3A1CDE902090A20FFF79DFEF5
:104AE00008B900200490384602F050FD204602F03C
:104AF0004DFD0498B7E72DE9F84380460C4615466E
:104B00001E462F2108F1060002F04BFF0746002049
:104B1000009017B90120BDE8F8837F1C6A46042184
:104B200008F10100FFF7ADFC252002F000FD206038
:104B3000206808B90220EEE72521206803F064F818
:104B400024223946206802F0E8FF243700982C38E8
:104B500030803188481C02F0EAFC2860286820B9BF
:104B6000206802F013FD0320D5E73288511C286825
:104B700003F04AF832883946286802F0CEFF002058
:104B8000C9E72DE9FF5F07460D469046384602F01B
:104B90005AFF86B2284602F056FF1FFA80FA4FF0FD
:104BA0000009F01D02F0C3FC04461CB9012004B04A
:104BB000BDE8F09FF11D204603F026F88EA00168A5
:104BC00021608088A08032463946204602F0F3FEFC
:104BD000284602F038FF83460120002100915B4601
:104BE0002A46CDE90208019121460A20FFF715FE69
:104BF00010B94FF0000901E04FF00109204602F022
:104C0000C5FC4846D3E72DE9FF5F80461746994625
:104C10000E9C0026B246B3460025B8F1000F03D122
:104C2000012004B0BDE8F09F0BE057F8250008B95B
:104C30000220F6E757F8250002F005FF0644681C3D
:104C4000C5B24D45F1DB09EB4900801C00EB060ABB
:104C50000AF105012046FFF7C3FB206808B90320CD
:104C6000DFE782216268501C606020688154D4E9CB
:104C7000000281185046FFF7EDFB0FFA80FBBBF1F5
:104C8000000F04DA2046FFF7D7FB0420C9E760686D
:104C9000584460604FEA18216268501C60602068C8
:104CA00081546268501C6060206800F80280002512
:104CB00024E057F8250002F0C6FE0646C6F3072199
:104CC0006268501C6060206881546268501C60609B
:104CD00020688654D4E90023D01857F825103246AE
:104CE00002F069FE6068304460600198C1B2626899
:104CF000501C606020688154681CC5B24D45D8DBEB
:104D000000208EE70146FF208A78A2B9CA78142ACB
:104D100011D10A7932B1012A05D0022A04D0802AA1
:104D200006D103E000BF00BF002003E0012001E046
:104D3000022000BF00BF70472DE9F05F80460F469C
:104D400091461C460026B246B3460025B8F1000F36
:104D500002D10120BDE8F09F0BE057F8250008B90B
:104D60000220F7E757F8250002F06DFE0644681CA4
:104D7000C5B24D45F1DB022000EB490000EB060A0D
:104D80000AF105012046FFF72BFB206808B9032034
:104D9000E0E7A2216268501C606020688154D4E979
:104DA000000281185046FFF755FB0FFA80FBBBF15C
:104DB000000F04DA2046FFF73FFB0420CAE76068D3
:104DC000584460604FEA18216268501C6060206897
:104DD00081546268501C6060206800F802800025E1
:104DE0002CE00000246470007B2264735F696422FD
:104DF0003A222573227D000024637273702F000015
:104E000057F8250002F01FFE0646C6F30721626828
:104E1000501C6060206881546268501C606020688B
:104E20008654D4E90023D01857F82510324602F0F2
:104E3000C2FD606830446060681CC5B24D45DFDB70
:104E4000002087E7014601208A781AB9CA781E2A0D
:104E500000D1002070472DE9FC5F81460D461446C5
:104E60001E46DDE90C8B99F8000000F00F0A0020C7
:104E700001900AF008000090CAF341008BF800008E
:104E800001AA042109F10100FFF7FBFA4844471C7D
:104E90000198022802D30AF0010010B1FF20BDE8FA
:104EA000FC9F7878397840EA012020802088801C97
:104EB0000199884201D9FF20F1E7AFF2C051B81C37
:104EC00002F08BFD08B10F20E9E79BF8000020B14C
:104ED00001283DD0022877D13BE0009808B1FF209F
:104EE000DDE72188481C02F022FB2860286808B909
:104EF000FF20D4E72288511C286802F085FE228812
:104F0000B91C286802F009FE0198801E2188401A09
:104F1000A8F80000B8F80010481C02F008FB306048
:104F2000306820B9286802F031FBFF20B7E7B8F8F5
:104F30000020511C306802F067FEB8F80020B4F879
:104F400000C0BB1C0CEB0301306802F0E6FD4FE033
:104F500000BF2088801C0199884201D9FF209EE76C
:104F60002088C01C395C2088801C385C41EA002104
:104F70000E9801800E9808B9FF2090E72188481C00
:104F800002F0D5FA2860286808B9FF2087E7228850
:104F9000511C286802F038FE2288B91C286802F0EB
:104FA000BCFD0198001F2188401AA8F80000B8F83D
:104FB0000010481C02F0BBFA3060306828B928683D
:104FC00002F0E4FAFF206AE710E0B8F80020511C74
:104FD000306802F019FEB8F80020B4F800C03B1D9C
:104FE0000CEB0301306802F098FD01E0FF2056E76A
:104FF00000BF2B21284602F0D4FC20B923212846EB
:1050000002F0CFFC08B1FF2049E7002047E770B568
:1050100005460C4604212046FFF7E2F9206808B94E
:10502000012070BD40216268501C6060206881547E
:1050300002216268501C60602068815429126268F5
:10504000501C6060206881546268501C6060206859
:1050500085540020E5E701464878022801D0012068
:105060007047887820B9C8780A2801D10020F7E76E
:105070000120F5E770B505460C4604212046FFF7F0
:10508000AFF9206808B9012070BD50216268501C3A
:1050900060602068815402216268501C6060206852
:1050A000815429126268501C6060206881546268D3
:1050B000501C6060206885540020E5E70146487870
:1050C000022801D001207047887820B9C8780A28C2
:1050D00001D10020F7E70120F5E770B505460C4641
:1050E00004212046FFF77CF9206808B9012070BD33
:1050F00062216268501C60602068815402216268ED
:10510000501C60602068815429126268501C6060E5
:10511000206881546268501C6060206885540020BB
:10512000E5E702465078022801D0012070479078C8
:10513000B0EB112F05D1D078CBB2984201D100202D
:10514000F4E70120F2E770B505460C46042120463D
:10515000FFF746F9206808B9012070BD7021626828
:10516000501C60602068815402216268501C60609D
:105170002068815429126268501C60602068815444
:105180006268501C6060206885540020E5E7014695
:105190004878022801D001207047887820B9C87863
:1051A0000A2801D10020F7E70120F5E710B50446F1
:1051B00002212046FFF714F9206808B9012010BD2C
:1051C000C0216268501C60602068815400216268C0
:1051D000501C6060206881540020F0E730B58BB02F
:1051E00000200790089009900A900125D9A0DBA320
:1051F000DDA2DFA10090EA48FBF792FF07A800219B
:1052000002910391CDE9041000912B02D1A20191EA
:10521000D2A1D5A0FFF78DF9002842D1089A91B20A
:105220000798FEF793FFFA20FEF7A7FF0446002C2D
:1052300033D02046FFF748F902282ED12046FFF749
:10524000DDFA062823D2DFE800F003090E13181D4B
:10525000D4A1D348FBF764FF00251DE0D6A1D048B8
:10526000FBF75EFF18E0DBA1CD48FBF759FF13E029
:10527000E1A1CB48FBF754FF0EE0E7A1C848FBF7DC
:105280004FFF09E0EDA1C648FBF74AFF04E0F6A195
:10529000C348FBF745FF00BF00BF07A8FFF7CCF8E6
:1052A00003E0F8A1BE48FBF73BFF28460BB030BD3A
:1052B00070B586B004460D4600260020029003908B
:1052C0000490059007E054F82620F7A1B448FBF7B6
:1052D00027FF701CC6B2AE42F5DB02A82B46224661
:1052E000002100901420FFF78EFC38B9039A91B288
:1052F0000298FEF72BFF02A8FFF79EF806B070BDDC
:1053000070B588B005460C460020049005900690C4
:10531000079023462A46EAA1A148FBF701FF204651
:1053200002F091FB064604A80121002200923346B8
:10533000CDE901210390224629460A20FFF76DFAA4
:1053400038B9059A91B20498FEF700FF04A8FFF758
:1053500073F808B070BD2DE9F04F8FB08246002081
:105360000B900C900D900E900A9009900890079069
:1053700000260690002500248346002780468146AB
:105380005046FFF7A1F80646F01E0D2870D2DFE860
:1053900000F02BB3BCD6DF6FDE6FDD6F6F6F0700E1
:1053A00007AB0AAA09A95046FFF7A5FB0546D5B9E0
:1053B000BDF81C000090CAA17948DDE90923FBF77C
:1053C000AFFE0BAADDE90901FFF7DBFB58B9CDA160
:1053D0007348FBF7A5FE0C9A91B20B98FEF7B6FE48
:1053E0000BA8FFF729F863E2CC4806A907AA0AAB85
:1053F000CDE90021029008AA09A95046FFF72BFD2C
:105400000546002D77D1BDF81C000A99CDE90010A2
:10541000BDF82030C2A16248099AFBF781FE0A98C4
:1054200001F08AF9074647B900F0D4FA0246CBA149
:1054300002905B48FBF774FE2AE0CDA1384601F0EC
:1054400081FD8046CCA1384601F07CFD8146424674
:10545000CBA15348FBF764FE4A46CEA15048FBF768
:105460005FFED8F8140020B10020CF49086003E0A7
:105470001BE20120CC490860D9F8140028B10020B3
:10548000CA490860CA49087002E00120C74908609B
:10549000384600F001FB9DF81800012802D00228D0
:1054A00027D112E00BA99D480088FFF7B0FD58B93D
:1054B000C0A13B48FBF734FE0C9A91B20B98FEF763
:1054C00045FE0BA8FEF7B8FF14E00BA9934800882F
:1054D000FFF7D0FD58B9BDA13148FBF721FE0C9A6A
:1054E00091B20B98FEF732FE0BA8FEF7A5FF01E084
:1054F00001E000BF00BFDBE15046FFF7ACFD18B98B
:10550000B8A12748FBF70CFED2E15046FFF7D6FDC5
:10551000A0B9BCA12248FBF703FE0BA90A20FFF7A4
:10552000DCFD58B9BDA11E48FBF7FAFD0C9A91B2FB
:105530000B98FEF70BFE0BA8FEF77EFFB8E177484D
:1055400001885046FFF7EDFD18B973E19FE190E146
:1055500086E184E136363636363600006167726998
:1055600063756C7475726500736D61727400000010
:105570004F6E654E65745F4465764C696E6B0D0ABF
:1055800050524F49443A2025732C09415549463A17
:105590002025732C0944455649443A25730D0A00C9
:1055A00000100140546970733A09C1ACBDD3B3C94E
:1055B000B9A60D0A000000005741524E3A09C1AC8D
:1055C000BDD3CAA7B0DCA3BAD0ADD2E9B4EDCEF357
:1055D0000D0A00005741524E3A09C1ACBDD3CAA7CB
:1055E000B0DCA3BAB7C7B7A8B5C4636C69656E74FD
:1055F00069640D0A000000005741524E3A09C1ACDF
:10560000BDD3CAA7B0DCA3BAB7FECEF1C6F7CAA70E
:10561000B0DC0D0A000000005741524E3A09C1ACFF
:10562000BDD3CAA7B0DCA3BAD3C3BBA7C3FBBBF22D
:10563000C3DCC2EBB4EDCEF30D0A00005741524E6D
:105640003A09C1ACBDD3CAA7B0DCA3BAB7C7B7A8E3
:10565000C1B4BDD328B1C8C8E7746F6B656EB7C756
:10566000B7A8290D0A0000004552523A09C1ACBD45
:10567000D3CAA7B0DCA3BACEB4D6AAB4EDCEF30D8C
:105680000A0000005741524E3A094D5154545F50A0
:1056900061636B6574436F6E6E6563742046616908
:1056A0006C65640D0A000000537562736372696271
:1056B0006520546F7069633A2025730D0A0000005D
:1056C0005075626C69736820546F7069633A202565
:1056D000732C204D73673A2025730D0A00000000DB
:1056E000636D6469643A2025732C207265713A20D9
:1056F00025732C207265715F6C656E3A2025640DF0
:105700000A000000546970733A0953656E642043BF
:105710006D64526573700D0A000000003C080020A3
:10572000746F7069633A2025732C20746F706963FD
:105730005F6C656E3A2025642C207061796C6F6116
:10574000643A2025732C207061796C6F61645F6C02
:10575000656E3A2025640D0A000000004572726FE4
:1057600072206265666F72653A205B25735D0A0080
:105770004C45443200000000424545500000000006
:105780006A736F6E5F6C656432203D2025640D0A7C
:10579000000000006A736F6E5F62656570203D20D7
:1057A00025640D0A00000000A4024242A882404283
:1057B00002080020546970733A0953656E642050E2
:1057C00075626C69736841636B0D0A00546970738C
:1057D0003A0953656E64205075626C69736852654E
:1057E000630D0A00546970733A094D5154542050A6
:1057F00075626C6973682053656E64204F4B0D0AA7
:1058000000000000546970733A09526576205075A3
:10581000626C6973685265630D0A000054697073A5
:105820003A0953656E64205075626C6973685265FD
:105830006C0D0A0036A13C48FBF772FC0BA90A204C
:10584000FFF781FC58B939A13748FBF769FC0C9A7E
:1058500091B20B98FEF77AFC0BA8FEF7EDFD27E05E
:105860005046FFF794FC18B937A12F48FBF758FCB6
:105870001EE05046FFF746FA20B939A12A48FBF747
:105880004FFC03E03DA12848FBF74AFC10E05046DE
:10589000FFF7D8FA20B940A12348FBF741FC03E009
:1058A00044A12148FBF73CFC02E04FF0FF3500BF6C
:1058B00000BFFEF707FC681C10B90FB0BDE8F08F01
:1058C0007D210A9802F06DF80446A4B1681C90B1DD
:1058D000641C06E014F8012B58460BF1010B03A9D8
:1058E0000A542078302802DB20783928F2DD03A81A
:1058F00002F04AF883460F2E01D0032E05D10998F5
:1059000001F044FE0A9801F041FE00BFD5E7000017
:10591000546970733A09526576205075626C6973E8
:105920006852656C0D0A00000010014054697073E4
:105930003A0953656E64205075626C697368436FF1
:105940006D700D0A00000000546970733A095265C9
:1059500076205075626C697368436F6D700D0A0034
:10596000546970733A094D515454205375627363EE
:1059700072696265204F4B0D0A0000005469707314
:105980003A094D51545420537562736372696265CC
:10599000204572720D0A0000546970733A094D5126
:1059A000545420556E537562736372696265204F5B
:1059B0004B0D0A00546970733A094D5154542055E7
:1059C0006E537562736372696265204572720D0A67
:1059D00000000000FE480068704770B504460D46A0
:1059E0002CB9AC4201D0012070BD0020FCE70DB9FC
:1059F0000120F9E705E0207808B90020F4E7641CED
:105A00006D1C207801F0E9FD0646287801F0E5FDDF
:105A10008642F0D0207801F0E0FD0646287801F0BB
:105A2000DCFD301AE0E770B50446204602F00BF8C2
:105A3000451C2846E74909688847060000D170BD23
:105A40002A462146304602F068F83046F7E730B97A
:105A5000E149E04A1160E149E14A1160704701689B
:105A600009B1016800E0DC49DA4A1160416809B116
:105A7000416800E0D949DA4A116000BFEEE710B58D
:105A80002820D4490968884704461CB128212046AB
:105A900002F0DCF8204610BD70B5044622E025680F
:105AA000A08900F4807020B9A06810B1A068FFF749
:105AB000F3FFA08900F4807028B9206918B1C849A3
:105AC000206909688847A08900F4007028B9206A15
:105AD00018B1C349206A096888472046C049096847
